{
  "_format": "hh-sol-artifact-1",
  "contractName": "Staking",
  "sourceName": "contracts/Staking.sol",
  "abi": [
    {
      "inputs": [
        {
          "internalType": "uint256",
          "name": "currentEthUsdPrice",
          "type": "uint256"
        }
      ],
      "stateMutability": "payable",
      "type": "constructor"
    },
    {
      "inputs": [
        {
          "internalType": "string",
          "name": "name",
          "type": "string"
        },
        {
          "internalType": "string",
          "name": "symbol",
          "type": "string"
        },
        {
          "internalType": "address",
          "name": "tokenAddress",
          "type": "address"
        },
        {
          "internalType": "uint256",
          "name": "usdPrice",
          "type": "uint256"
        },
        {
          "internalType": "uint256",
          "name": "apy",
          "type": "uint256"
        }
      ],
      "name": "addToken",
      "outputs": [],
      "stateMutability": "nonpayable",
      "type": "function"
    },
    {
      "inputs": [
        {
          "internalType": "uint256",
          "name": "apy",
          "type": "uint256"
        },
        {
          "internalType": "uint256",
          "name": "value",
          "type": "uint256"
        },
        {
          "internalType": "uint256",
          "name": "numberDays",
          "type": "uint256"
        }
      ],
      "name": "calculateInterest",
      "outputs": [
        {
          "internalType": "uint256",
          "name": "",
          "type": "uint256"
        }
      ],
      "stateMutability": "pure",
      "type": "function"
    },
    {
      "inputs": [
        {
          "internalType": "uint256",
          "name": "createdDate",
          "type": "uint256"
        }
      ],
      "name": "calculateNumberDays",
      "outputs": [
        {
          "internalType": "uint256",
          "name": "",
          "type": "uint256"
        }
      ],
      "stateMutability": "view",
      "type": "function"
    },
    {
      "inputs": [
        {
          "internalType": "uint256",
          "name": "positionId",
          "type": "uint256"
        }
      ],
      "name": "closePosition",
      "outputs": [],
      "stateMutability": "nonpayable",
      "type": "function"
    },
    {
      "inputs": [],
      "name": "currentPositionId",
      "outputs": [
        {
          "internalType": "uint256",
          "name": "",
          "type": "uint256"
        }
      ],
      "stateMutability": "view",
      "type": "function"
    },
    {
      "inputs": [],
      "name": "currentTokenId",
      "outputs": [
        {
          "internalType": "uint256",
          "name": "",
          "type": "uint256"
        }
      ],
      "stateMutability": "view",
      "type": "function"
    },
    {
      "inputs": [],
      "name": "ethUsdPrice",
      "outputs": [
        {
          "internalType": "uint256",
          "name": "",
          "type": "uint256"
        }
      ],
      "stateMutability": "view",
      "type": "function"
    },
    {
      "inputs": [
        {
          "internalType": "uint256",
          "name": "positionId",
          "type": "uint256"
        }
      ],
      "name": "getPositionById",
      "outputs": [
        {
          "components": [
            {
              "internalType": "uint256",
              "name": "positionId",
              "type": "uint256"
            },
            {
              "internalType": "address",
              "name": "walletAddress",
              "type": "address"
            },
            {
              "internalType": "string",
              "name": "name",
              "type": "string"
            },
            {
              "internalType": "string",
              "name": "symbol",
              "type": "string"
            },
            {
              "internalType": "uint256",
              "name": "createdDate",
              "type": "uint256"
            },
            {
              "internalType": "uint256",
              "name": "apy",
              "type": "uint256"
            },
            {
              "internalType": "uint256",
              "name": "tokenQuantity",
              "type": "uint256"
            },
            {
              "internalType": "uint256",
              "name": "usdValue",
              "type": "uint256"
            },
            {
              "internalType": "uint256",
              "name": "ethValue",
              "type": "uint256"
            },
            {
              "internalType": "bool",
              "name": "isOpen",
              "type": "bool"
            }
          ],
          "internalType": "struct Staking.Position",
          "name": "",
          "type": "tuple"
        }
      ],
      "stateMutability": "view",
      "type": "function"
    },
    {
      "inputs": [],
      "name": "getPositionIdsForAddress",
      "outputs": [
        {
          "internalType": "uint256[]",
          "name": "",
          "type": "uint256[]"
        }
      ],
      "stateMutability": "view",
      "type": "function"
    },
    {
      "inputs": [
        {
          "internalType": "string",
          "name": "tokenSymbol",
          "type": "string"
        }
      ],
      "name": "getToken",
      "outputs": [
        {
          "components": [
            {
              "internalType": "uint256",
              "name": "tokenId",
              "type": "uint256"
            },
            {
              "internalType": "string",
              "name": "name",
              "type": "string"
            },
            {
              "internalType": "string",
              "name": "symbol",
              "type": "string"
            },
            {
              "internalType": "address",
              "name": "tokenAddress",
              "type": "address"
            },
            {
              "internalType": "uint256",
              "name": "usdPrice",
              "type": "uint256"
            },
            {
              "internalType": "uint256",
              "name": "ethPrice",
              "type": "uint256"
            },
            {
              "internalType": "uint256",
              "name": "apy",
              "type": "uint256"
            }
          ],
          "internalType": "struct Staking.Token",
          "name": "",
          "type": "tuple"
        }
      ],
      "stateMutability": "view",
      "type": "function"
    },
    {
      "inputs": [],
      "name": "getTokenSymbols",
      "outputs": [
        {
          "internalType": "string[]",
          "name": "",
          "type": "string[]"
        }
      ],
      "stateMutability": "view",
      "type": "function"
    },
    {
      "inputs": [
        {
          "internalType": "uint256",
          "name": "positionId",
          "type": "uint256"
        },
        {
          "internalType": "uint256",
          "name": "newCreatedDate",
          "type": "uint256"
        }
      ],
      "name": "modifyCreatedDate",
      "outputs": [],
      "stateMutability": "nonpayable",
      "type": "function"
    },
    {
      "inputs": [],
      "name": "owner",
      "outputs": [
        {
          "internalType": "address",
          "name": "",
          "type": "address"
        }
      ],
      "stateMutability": "view",
      "type": "function"
    },
    {
      "inputs": [
        {
          "internalType": "address",
          "name": "",
          "type": "address"
        },
        {
          "internalType": "uint256",
          "name": "",
          "type": "uint256"
        }
      ],
      "name": "positionIdsByAddress",
      "outputs": [
        {
          "internalType": "uint256",
          "name": "",
          "type": "uint256"
        }
      ],
      "stateMutability": "view",
      "type": "function"
    },
    {
      "inputs": [
        {
          "internalType": "uint256",
          "name": "",
          "type": "uint256"
        }
      ],
      "name": "positions",
      "outputs": [
        {
          "internalType": "uint256",
          "name": "positionId",
          "type": "uint256"
        },
        {
          "internalType": "address",
          "name": "walletAddress",
          "type": "address"
        },
        {
          "internalType": "string",
          "name": "name",
          "type": "string"
        },
        {
          "internalType": "string",
          "name": "symbol",
          "type": "string"
        },
        {
          "internalType": "uint256",
          "name": "createdDate",
          "type": "uint256"
        },
        {
          "internalType": "uint256",
          "name": "apy",
          "type": "uint256"
        },
        {
          "internalType": "uint256",
          "name": "tokenQuantity",
          "type": "uint256"
        },
        {
          "internalType": "uint256",
          "name": "usdValue",
          "type": "uint256"
        },
        {
          "internalType": "uint256",
          "name": "ethValue",
          "type": "uint256"
        },
        {
          "internalType": "bool",
          "name": "isOpen",
          "type": "bool"
        }
      ],
      "stateMutability": "view",
      "type": "function"
    },
    {
      "inputs": [
        {
          "internalType": "string",
          "name": "symbol",
          "type": "string"
        },
        {
          "internalType": "uint256",
          "name": "tokenQuantity",
          "type": "uint256"
        }
      ],
      "name": "stakeToken",
      "outputs": [],
      "stateMutability": "nonpayable",
      "type": "function"
    },
    {
      "inputs": [
        {
          "internalType": "string",
          "name": "",
          "type": "string"
        }
      ],
      "name": "stakedTokens",
      "outputs": [
        {
          "internalType": "uint256",
          "name": "",
          "type": "uint256"
        }
      ],
      "stateMutability": "view",
      "type": "function"
    },
    {
      "inputs": [
        {
          "internalType": "uint256",
          "name": "",
          "type": "uint256"
        }
      ],
      "name": "tokenSymbols",
      "outputs": [
        {
          "internalType": "string",
          "name": "",
          "type": "string"
        }
      ],
      "stateMutability": "view",
      "type": "function"
    },
    {
      "inputs": [
        {
          "internalType": "string",
          "name": "",
          "type": "string"
        }
      ],
      "name": "tokens",
      "outputs": [
        {
          "internalType": "uint256",
          "name": "tokenId",
          "type": "uint256"
        },
        {
          "internalType": "string",
          "name": "name",
          "type": "string"
        },
        {
          "internalType": "string",
          "name": "symbol",
          "type": "string"
        },
        {
          "internalType": "address",
          "name": "tokenAddress",
          "type": "address"
        },
        {
          "internalType": "uint256",
          "name": "usdPrice",
          "type": "uint256"
        },
        {
          "internalType": "uint256",
          "name": "ethPrice",
          "type": "uint256"
        },
        {
          "internalType": "uint256",
          "name": "apy",
          "type": "uint256"
        }
      ],
      "stateMutability": "view",
      "type": "function"
    }
  ],
  "bytecode": "0x608060405260018055600160055560405162002ec538038062002ec58339818101604052810190620000329190620000c0565b80600281905550336000806101000a81548173ffffffffffffffffffffffffffffffffffffffff021916908373ffffffffffffffffffffffffffffffffffffffff16021790555050620000f2565b600080fd5b6000819050919050565b6200009a8162000085565b8114620000a657600080fd5b50565b600081519050620000ba816200008f565b92915050565b600060208284031215620000d957620000d862000080565b5b6000620000e984828501620000a9565b91505092915050565b612dc380620001026000396000f3fe608060405234801561001057600080fd5b50600436106101205760003560e01c80636e7ddea8116100ad578063a126d60111610071578063a126d60114610340578063b838ec861461035c578063c1733f681461038c578063c41cc502146103bc578063ecb39da2146103ec57610120565b80636e7ddea81461027f5780638da5cb5b146102af5780639478ab8c146102cd57806394b308ab146102eb57806399fbab881461030757610120565b80631131c8cd116100f45780631131c8cd146101c75780632406b5c0146101e557806327f706551461021557806345eae373146102315780634b4ea9541461026157610120565b80629a9b7b1461012557806304c2320b1461014357806305b938161461017957806305e1bd8c14610197575b600080fd5b61012d610408565b60405161013a91906119d1565b60405180910390f35b61015d60048036038101906101589190611b46565b61040e565b6040516101709796959493929190611c4f565b60405180910390f35b610181610596565b60405161018e9190611dd8565b60405180910390f35b6101b160048036038101906101ac9190611e26565b61066f565b6040516101be91906119d1565b60405180910390f35b6101cf6106ab565b6040516101dc91906119d1565b60405180910390f35b6101ff60048036038101906101fa9190611e79565b6106b1565b60405161020c91906119d1565b60405180910390f35b61022f600480360381019061022a9190611ea6565b6106e9565b005b61024b60048036038101906102469190611f12565b610796565b60405161025891906119d1565b60405180910390f35b6102696107c7565b6040516102769190612010565b60405180910390f35b61029960048036038101906102949190611e79565b61085c565b6040516102a69190612032565b60405180910390f35b6102b7610908565b6040516102c49190612054565b60405180910390f35b6102d561092c565b6040516102e291906119d1565b60405180910390f35b610305600480360381019061030091906120cf565b610932565b005b610321600480360381019061031c9190611e79565b610bbe565b6040516103379a999897969594939291906121a6565b60405180910390f35b61035a60048036038101906103559190611e79565b610d4f565b005b61037660048036038101906103719190611e79565b611043565b604051610383919061234f565b60405180910390f35b6103a660048036038101906103a19190612371565b611242565b6040516103b39190612461565b60405180910390f35b6103d660048036038101906103d19190611b46565b61141f565b6040516103e391906119d1565b60405180910390f35b61040660048036038101906104019190612483565b61144d565b005b60015481565b60048180516020810182018051848252602083016020850120818352809550505050505060009150905080600001549080600101805461044d90612512565b80601f016020809104026020016040519081016040528092919081815260200182805461047990612512565b80156104c65780601f1061049b576101008083540402835291602001916104c6565b820191906000526020600020905b8154815290600101906020018083116104a957829003601f168201915b5050505050908060020180546104db90612512565b80601f016020809104026020016040519081016040528092919081815260200182805461050790612512565b80156105545780601f1061052957610100808354040283529160200191610554565b820191906000526020600020905b81548152906001019060200180831161053757829003601f168201915b5050505050908060030160009054906101000a900473ffffffffffffffffffffffffffffffffffffffff16908060040154908060050154908060060154905087565b60606003805480602002602001604051908101604052809291908181526020016000905b828210156106665783829060005260206000200180546105d990612512565b80601f016020809104026020016040519081016040528092919081815260200182805461060590612512565b80156106525780601f1061062757610100808354040283529160200191610652565b820191906000526020600020905b81548152906001019060200180831161063557829003601f168201915b5050505050815260200190600101906105ba565b50505050905090565b600061016d6103e88385876106849190612572565b61068e9190612572565b61069891906125e3565b6106a291906125e3565b90509392505050565b60055481565b60006018603c8084426106c49190612614565b6106ce91906125e3565b6106d891906125e3565b6106e291906125e3565b9050919050565b3373ffffffffffffffffffffffffffffffffffffffff1660008054906101000a900473ffffffffffffffffffffffffffffffffffffffff1673ffffffffffffffffffffffffffffffffffffffff1614610777576040517f08c379a000000000000000000000000000000000000000000000000000000000815260040161076e906126ba565b60405180910390fd5b8060066000848152602001908152602001600020600401819055505050565b600760205281600052604060002081815481106107b257600080fd5b90600052602060002001600091509150505481565b6060600760003373ffffffffffffffffffffffffffffffffffffffff1673ffffffffffffffffffffffffffffffffffffffff16815260200190815260200160002080548060200260200160405190810160405280929190818152602001828054801561085257602002820191906000526020600020905b81548152602001906001019080831161083e575b5050505050905090565b6003818154811061086c57600080fd5b90600052602060002001600091509050805461088790612512565b80601f01602080910402602001604051908101604052809291908181526020018280546108b390612512565b80156109005780601f106108d557610100808354040283529160200191610900565b820191906000526020600020905b8154815290600101906020018083116108e357829003601f168201915b505050505081565b60008054906101000a900473ffffffffffffffffffffffffffffffffffffffff1681565b60025481565b3373ffffffffffffffffffffffffffffffffffffffff1660008054906101000a900473ffffffffffffffffffffffffffffffffffffffff1673ffffffffffffffffffffffffffffffffffffffff16146109c0576040517f08c379a00000000000000000000000000000000000000000000000000000000081526004016109b7906126ba565b60405180910390fd5b60038585909180600181540180825580915050600190039060005260206000200160009091929091929091929091925091826109fd929190612891565b506040518060e00160405280600154815260200188888080601f016020809104026020016040519081016040528093929190818152602001838380828437600081840152601f19601f82011690508083019250505050505050815260200186868080601f016020809104026020016040519081016040528093929190818152602001838380828437600081840152601f19601f8201169050808301925050505050505081526020018473ffffffffffffffffffffffffffffffffffffffff16815260200183815260200160025484610ad591906125e3565b81526020018281525060048686604051610af0929190612991565b9081526020016040518091039020600082015181600001556020820151816001019081610b1d91906129aa565b506040820151816002019081610b3391906129aa565b5060608201518160030160006101000a81548173ffffffffffffffffffffffffffffffffffffffff021916908373ffffffffffffffffffffffffffffffffffffffff1602179055506080820151816004015560a0820151816005015560c082015181600601559050506001806000828254610bae9190612a7c565b9250508190555050505050505050565b60066020528060005260406000206000915090508060000154908060010160009054906101000a900473ffffffffffffffffffffffffffffffffffffffff1690806002018054610c0d90612512565b80601f0160208091040260200160405190810160405280929190818152602001828054610c3990612512565b8015610c865780601f10610c5b57610100808354040283529160200191610c86565b820191906000526020600020905b815481529060010190602001808311610c6957829003601f168201915b505050505090806003018054610c9b90612512565b80601f0160208091040260200160405190810160405280929190818152602001828054610cc790612512565b8015610d145780601f10610ce957610100808354040283529160200191610d14565b820191906000526020600020905b815481529060010190602001808311610cf757829003601f168201915b5050505050908060040154908060050154908060060154908060070154908060080154908060090160009054906101000a900460ff1690508a565b3373ffffffffffffffffffffffffffffffffffffffff166006600083815260200190815260200160002060010160009054906101000a900473ffffffffffffffffffffffffffffffffffffffff1673ffffffffffffffffffffffffffffffffffffffff1614610df3576040517f08c379a0000000000000000000000000000000000000000000000000000000008152600401610dea90612afc565b60405180910390fd5b600115156006600083815260200190815260200160002060090160009054906101000a900460ff16151514610e5d576040517f08c379a0000000000000000000000000000000000000000000000000000000008152600401610e5490612b68565b60405180910390fd5b60006006600083815260200190815260200160002060090160006101000a81548160ff021916908315150217905550600460066000838152602001908152602001600020600301604051610eb19190612c0b565b908152602001604051809103902060030160009054906101000a900473ffffffffffffffffffffffffffffffffffffffff1673ffffffffffffffffffffffffffffffffffffffff1663a9059cbb3360066000858152602001908152602001600020600601546040518363ffffffff1660e01b8152600401610f33929190612c22565b6020604051808303816000875af1158015610f52573d6000803e3d6000fd5b505050506040513d601f19601f82011682018060405250810190610f769190612c77565b506000610f9860066000848152602001908152602001600020600401546106b1565b90506000610fd3600660008581526020019081526020016000206005015460066000868152602001908152602001600020600801548461066f565b90503373ffffffffffffffffffffffffffffffffffffffff1681604051610ff990612cd5565b60006040518083038185875af1925050503d8060008114611036576040519150601f19603f3d011682016040523d82523d6000602084013e61103b565b606091505b505050505050565b61104b6118fa565b6006600083815260200190815260200160002060405180610140016040529081600082015481526020016001820160009054906101000a900473ffffffffffffffffffffffffffffffffffffffff1673ffffffffffffffffffffffffffffffffffffffff1673ffffffffffffffffffffffffffffffffffffffff1681526020016002820180546110da90612512565b80601f016020809104026020016040519081016040528092919081815260200182805461110690612512565b80156111535780601f1061112857610100808354040283529160200191611153565b820191906000526020600020905b81548152906001019060200180831161113657829003601f168201915b5050505050815260200160038201805461116c90612512565b80601f016020809104026020016040519081016040528092919081815260200182805461119890612512565b80156111e55780601f106111ba576101008083540402835291602001916111e5565b820191906000526020600020905b8154815290600101906020018083116111c857829003601f168201915b5050505050815260200160048201548152602001600582015481526020016006820154815260200160078201548152602001600882015481526020016009820160009054906101000a900460ff1615151515815250509050919050565b61124a611965565b6004838360405161125c929190612991565b90815260200160405180910390206040518060e00160405290816000820154815260200160018201805461128f90612512565b80601f01602080910402602001604051908101604052809291908181526020018280546112bb90612512565b80156113085780601f106112dd57610100808354040283529160200191611308565b820191906000526020600020905b8154815290600101906020018083116112eb57829003601f168201915b5050505050815260200160028201805461132190612512565b80601f016020809104026020016040519081016040528092919081815260200182805461134d90612512565b801561139a5780601f1061136f5761010080835404028352916020019161139a565b820191906000526020600020905b81548152906001019060200180831161137d57829003601f168201915b505050505081526020016003820160009054906101000a900473ffffffffffffffffffffffffffffffffffffffff1673ffffffffffffffffffffffffffffffffffffffff1673ffffffffffffffffffffffffffffffffffffffff1681526020016004820154815260200160058201548152602001600682015481525050905092915050565b6008818051602081018201805184825260208301602085012081835280955050505050506000915090505481565b600060048484604051611461929190612991565b908152602001604051809103902060000154036114b3576040517f08c379a00000000000000000000000000000000000000000000000000000000081526004016114aa90612d36565b60405180910390fd5b600483836040516114c5929190612991565b908152602001604051809103902060030160009054906101000a900473ffffffffffffffffffffffffffffffffffffffff1673ffffffffffffffffffffffffffffffffffffffff166323b872dd3330846040518463ffffffff1660e01b815260040161153393929190612d56565b6020604051808303816000875af1158015611552573d6000803e3d6000fd5b505050506040513d601f19601f820116820180604052508101906115769190612c77565b5060405180610140016040528060055481526020013373ffffffffffffffffffffffffffffffffffffffff168152602001600485856040516115b9929190612991565b908152602001604051809103902060010180546115d590612512565b80601f016020809104026020016040519081016040528092919081815260200182805461160190612512565b801561164e5780601f106116235761010080835404028352916020019161164e565b820191906000526020600020905b81548152906001019060200180831161163157829003601f168201915b5050505050815260200184848080601f016020809104026020016040519081016040528093929190818152602001838380828437600081840152601f19601f820116905080830192505050505050508152602001428152602001600485856040516116ba929190612991565b908152602001604051809103902060060154815260200182815260200182600486866040516116ea929190612991565b9081526020016040518091039020600401546117069190612572565b81526020016002548360048787604051611721929190612991565b90815260200160405180910390206004015461173d9190612572565b61174791906125e3565b8152602001600115158152506006600060055481526020019081526020016000206000820151816000015560208201518160010160006101000a81548173ffffffffffffffffffffffffffffffffffffffff021916908373ffffffffffffffffffffffffffffffffffffffff16021790555060408201518160020190816117ce91906129aa565b5060608201518160030190816117e491906129aa565b506080820151816004015560a0820151816005015560c0820151816006015560e0820151816007015561010082015181600801556101208201518160090160006101000a81548160ff021916908315150217905550905050600760003373ffffffffffffffffffffffffffffffffffffffff1673ffffffffffffffffffffffffffffffffffffffff16815260200190815260200160002060055490806001815401808255809150506001900390600052602060002001600090919091909150556001600560008282546118b79190612a7c565b9250508190555080600884846040516118d1929190612991565b908152602001604051809103902060008282546118ee9190612a7c565b92505081905550505050565b60405180610140016040528060008152602001600073ffffffffffffffffffffffffffffffffffffffff168152602001606081526020016060815260200160008152602001600081526020016000815260200160008152602001600081526020016000151581525090565b6040518060e00160405280600081526020016060815260200160608152602001600073ffffffffffffffffffffffffffffffffffffffff1681526020016000815260200160008152602001600081525090565b6000819050919050565b6119cb816119b8565b82525050565b60006020820190506119e660008301846119c2565b92915050565b6000604051905090565b600080fd5b600080fd5b600080fd5b600080fd5b6000601f19601f8301169050919050565b7f4e487b7100000000000000000000000000000000000000000000000000000000600052604160045260246000fd5b611a5382611a0a565b810181811067ffffffffffffffff82111715611a7257611a71611a1b565b5b80604052505050565b6000611a856119ec565b9050611a918282611a4a565b919050565b600067ffffffffffffffff821115611ab157611ab0611a1b565b5b611aba82611a0a565b9050602081019050919050565b82818337600083830152505050565b6000611ae9611ae484611a96565b611a7b565b905082815260208101848484011115611b0557611b04611a05565b5b611b10848285611ac7565b509392505050565b600082601f830112611b2d57611b2c611a00565b5b8135611b3d848260208601611ad6565b91505092915050565b600060208284031215611b5c57611b5b6119f6565b5b600082013567ffffffffffffffff811115611b7a57611b796119fb565b5b611b8684828501611b18565b91505092915050565b600081519050919050565b600082825260208201905092915050565b60005b83811015611bc9578082015181840152602081019050611bae565b60008484015250505050565b6000611be082611b8f565b611bea8185611b9a565b9350611bfa818560208601611bab565b611c0381611a0a565b840191505092915050565b600073ffffffffffffffffffffffffffffffffffffffff82169050919050565b6000611c3982611c0e565b9050919050565b611c4981611c2e565b82525050565b600060e082019050611c64600083018a6119c2565b8181036020830152611c768189611bd5565b90508181036040830152611c8a8188611bd5565b9050611c996060830187611c40565b611ca660808301866119c2565b611cb360a08301856119c2565b611cc060c08301846119c2565b98975050505050505050565b600081519050919050565b600082825260208201905092915050565b6000819050602082019050919050565b600082825260208201905092915050565b6000611d1482611b8f565b611d1e8185611cf8565b9350611d2e818560208601611bab565b611d3781611a0a565b840191505092915050565b6000611d4e8383611d09565b905092915050565b6000602082019050919050565b6000611d6e82611ccc565b611d788185611cd7565b935083602082028501611d8a85611ce8565b8060005b85811015611dc65784840389528151611da78582611d42565b9450611db283611d56565b925060208a01995050600181019050611d8e565b50829750879550505050505092915050565b60006020820190508181036000830152611df28184611d63565b905092915050565b611e03816119b8565b8114611e0e57600080fd5b50565b600081359050611e2081611dfa565b92915050565b600080600060608486031215611e3f57611e3e6119f6565b5b6000611e4d86828701611e11565b9350506020611e5e86828701611e11565b9250506040611e6f86828701611e11565b9150509250925092565b600060208284031215611e8f57611e8e6119f6565b5b6000611e9d84828501611e11565b91505092915050565b60008060408385031215611ebd57611ebc6119f6565b5b6000611ecb85828601611e11565b9250506020611edc85828601611e11565b9150509250929050565b611eef81611c2e565b8114611efa57600080fd5b50565b600081359050611f0c81611ee6565b92915050565b60008060408385031215611f2957611f286119f6565b5b6000611f3785828601611efd565b9250506020611f4885828601611e11565b9150509250929050565b600081519050919050565b600082825260208201905092915050565b6000819050602082019050919050565b611f87816119b8565b82525050565b6000611f998383611f7e565b60208301905092915050565b6000602082019050919050565b6000611fbd82611f52565b611fc78185611f5d565b9350611fd283611f6e565b8060005b83811015612003578151611fea8882611f8d565b9750611ff583611fa5565b925050600181019050611fd6565b5085935050505092915050565b6000602082019050818103600083015261202a8184611fb2565b905092915050565b6000602082019050818103600083015261204c8184611bd5565b905092915050565b60006020820190506120696000830184611c40565b92915050565b600080fd5b600080fd5b60008083601f84011261208f5761208e611a00565b5b8235905067ffffffffffffffff8111156120ac576120ab61206f565b5b6020830191508360018202830111156120c8576120c7612074565b5b9250929050565b600080600080600080600060a0888a0312156120ee576120ed6119f6565b5b600088013567ffffffffffffffff81111561210c5761210b6119fb565b5b6121188a828b01612079565b9750975050602088013567ffffffffffffffff81111561213b5761213a6119fb565b5b6121478a828b01612079565b9550955050604061215a8a828b01611efd565b935050606061216b8a828b01611e11565b925050608061217c8a828b01611e11565b91505092959891949750929550565b60008115159050919050565b6121a08161218b565b82525050565b6000610140820190506121bc600083018d6119c2565b6121c9602083018c611c40565b81810360408301526121db818b611bd5565b905081810360608301526121ef818a611bd5565b90506121fe60808301896119c2565b61220b60a08301886119c2565b61221860c08301876119c2565b61222560e08301866119c2565b6122336101008301856119c2565b612241610120830184612197565b9b9a5050505050505050505050565b61225981611c2e565b82525050565b6122688161218b565b82525050565b6000610140830160008301516122876000860182611f7e565b50602083015161229a6020860182612250565b50604083015184820360408601526122b28282611d09565b915050606083015184820360608601526122cc8282611d09565b91505060808301516122e16080860182611f7e565b5060a08301516122f460a0860182611f7e565b5060c083015161230760c0860182611f7e565b5060e083015161231a60e0860182611f7e565b5061010083015161232f610100860182611f7e565b5061012083015161234461012086018261225f565b508091505092915050565b60006020820190508181036000830152612369818461226e565b905092915050565b60008060208385031215612388576123876119f6565b5b600083013567ffffffffffffffff8111156123a6576123a56119fb565b5b6123b285828601612079565b92509250509250929050565b600060e0830160008301516123d66000860182611f7e565b50602083015184820360208601526123ee8282611d09565b915050604083015184820360408601526124088282611d09565b915050606083015161241d6060860182612250565b5060808301516124306080860182611f7e565b5060a083015161244360a0860182611f7e565b5060c083015161245660c0860182611f7e565b508091505092915050565b6000602082019050818103600083015261247b81846123be565b905092915050565b60008060006040848603121561249c5761249b6119f6565b5b600084013567ffffffffffffffff8111156124ba576124b96119fb565b5b6124c686828701612079565b935093505060206124d986828701611e11565b9150509250925092565b7f4e487b7100000000000000000000000000000000000000000000000000000000600052602260045260246000fd5b6000600282049050600182168061252a57607f821691505b60208210810361253d5761253c6124e3565b5b50919050565b7f4e487b7100000000000000000000000000000000000000000000000000000000600052601160045260246000fd5b600061257d826119b8565b9150612588836119b8565b9250828202612596816119b8565b915082820484148315176125ad576125ac612543565b5b5092915050565b7f4e487b7100000000000000000000000000000000000000000000000000000000600052601260045260246000fd5b60006125ee826119b8565b91506125f9836119b8565b925082612609576126086125b4565b5b828204905092915050565b600061261f826119b8565b915061262a836119b8565b925082820390508181111561264257612641612543565b5b92915050565b7f4f6e6c79206f776e65722063616e2063616c6c20746869732066756e6374696f60008201527f6e00000000000000000000000000000000000000000000000000000000000000602082015250565b60006126a4602183611b9a565b91506126af82612648565b604082019050919050565b600060208201905081810360008301526126d381612697565b9050919050565b600082905092915050565b60008190508160005260206000209050919050565b60006020601f8301049050919050565b600082821b905092915050565b6000600883026127477fffffffffffffffffffffffffffffffffffffffffffffffffffffffffffffffff8261270a565b612751868361270a565b95508019841693508086168417925050509392505050565b6000819050919050565b600061278e612789612784846119b8565b612769565b6119b8565b9050919050565b6000819050919050565b6127a883612773565b6127bc6127b482612795565b848454612717565b825550505050565b600090565b6127d16127c4565b6127dc81848461279f565b505050565b5b81811015612800576127f56000826127c9565b6001810190506127e2565b5050565b601f82111561284557612816816126e5565b61281f846126fa565b8101602085101561282e578190505b61284261283a856126fa565b8301826127e1565b50505b505050565b600082821c905092915050565b60006128686000198460080261284a565b1980831691505092915050565b60006128818383612857565b9150826002028217905092915050565b61289b83836126da565b67ffffffffffffffff8111156128b4576128b3611a1b565b5b6128be8254612512565b6128c9828285612804565b6000601f8311600181146128f857600084156128e6578287013590505b6128f08582612875565b865550612958565b601f198416612906866126e5565b60005b8281101561292e57848901358255600182019150602085019450602081019050612909565b8683101561294b5784890135612947601f891682612857565b8355505b6001600288020188555050505b50505050505050565b600081905092915050565b60006129788385612961565b9350612985838584611ac7565b82840190509392505050565b600061299e82848661296c565b91508190509392505050565b6129b382611b8f565b67ffffffffffffffff8111156129cc576129cb611a1b565b5b6129d68254612512565b6129e1828285612804565b600060209050601f831160018114612a145760008415612a02578287015190505b612a0c8582612875565b865550612a74565b601f198416612a22866126e5565b60005b82811015612a4a57848901518255600182019150602085019450602081019050612a25565b86831015612a675784890151612a63601f891682612857565b8355505b6001600288020188555050505b505050505050565b6000612a87826119b8565b9150612a92836119b8565b9250828201905080821115612aaa57612aa9612543565b5b92915050565b7f4e6f7420746865206f776e6572206f66207468697320706f736974696f6e0000600082015250565b6000612ae6601e83611b9a565b9150612af182612ab0565b602082019050919050565b60006020820190508181036000830152612b1581612ad9565b9050919050565b7f506f736974696f6e20616c726561647920636c6f736564000000000000000000600082015250565b6000612b52601783611b9a565b9150612b5d82612b1c565b602082019050919050565b60006020820190508181036000830152612b8181612b45565b9050919050565b60008154612b9581612512565b612b9f8186612961565b94506001821660008114612bba5760018114612bcf57612c02565b60ff1983168652811515820286019350612c02565b612bd8856126e5565b60005b83811015612bfa57815481890152600182019150602081019050612bdb565b838801955050505b50505092915050565b6000612c178284612b88565b915081905092915050565b6000604082019050612c376000830185611c40565b612c4460208301846119c2565b9392505050565b612c548161218b565b8114612c5f57600080fd5b50565b600081519050612c7181612c4b565b92915050565b600060208284031215612c8d57612c8c6119f6565b5b6000612c9b84828501612c62565b91505092915050565b600081905092915050565b50565b6000612cbf600083612ca4565b9150612cca82612caf565b600082019050919050565b6000612ce082612cb2565b9150819050919050565b7f5468697320746f6b656e2063616e2774206265207374616b6564000000000000600082015250565b6000612d20601a83611b9a565b9150612d2b82612cea565b602082019050919050565b60006020820190508181036000830152612d4f81612d13565b9050919050565b6000606082019050612d6b6000830186611c40565b612d786020830185611c40565b612d8560408301846119c2565b94935050505056fea26469706673582212207ecff3dfe1cf9bf7ba70b7ad43fbedd5a78b9bc04af381d21896bbb0fec1d30f64736f6c63430008110033",
  "linkReferences": {},
  "deployedLinkReferences": {}
}